{
  "_format": "hh-sol-artifact-1",
  "contractName": "Raffle",
  "sourceName": "contracts/Raffle.sol",
  "abi": [
    {
      "inputs": [
        {
          "internalType": "address",
          "name": "vrfCordinatorV2",
          "type": "address"
        },
        {
          "internalType": "uint256",
          "name": "entranceFee",
          "type": "uint256"
        }
      ],
      "stateMutability": "nonpayable",
      "type": "constructor"
    },
    {
      "inputs": [
        {
          "internalType": "address",
          "name": "have",
          "type": "address"
        },
        {
          "internalType": "address",
          "name": "want",
          "type": "address"
        }
      ],
      "name": "OnlyCoordinatorCanFulfill",
      "type": "error"
    },
    {
      "inputs": [],
      "name": "Raffle_NotEnoughEthEnterd",
      "type": "error"
    },
    {
      "anonymous": false,
      "inputs": [
        {
          "indexed": true,
          "internalType": "address",
          "name": "player",
          "type": "address"
        }
      ],
      "name": "RaffleEnter",
      "type": "event"
    },
    {
      "inputs": [],
      "name": "enterRaffle",
      "outputs": [],
      "stateMutability": "payable",
      "type": "function"
    },
    {
      "inputs": [],
      "name": "getEntranceFee",
      "outputs": [
        {
          "internalType": "uint256",
          "name": "",
          "type": "uint256"
        }
      ],
      "stateMutability": "view",
      "type": "function"
    },
    {
      "inputs": [
        {
          "internalType": "uint256",
          "name": "index",
          "type": "uint256"
        }
      ],
      "name": "getPlayer",
      "outputs": [
        {
          "internalType": "address",
          "name": "",
          "type": "address"
        }
      ],
      "stateMutability": "view",
      "type": "function"
    },
    {
      "inputs": [
        {
          "internalType": "uint256",
          "name": "requestId",
          "type": "uint256"
        },
        {
          "internalType": "uint256[]",
          "name": "randomWords",
          "type": "uint256[]"
        }
      ],
      "name": "rawFulfillRandomWords",
      "outputs": [],
      "stateMutability": "nonpayable",
      "type": "function"
    },
    {
      "inputs": [],
      "name": "selectRandomWinner",
      "outputs": [],
      "stateMutability": "nonpayable",
      "type": "function"
    }
  ],
  "bytecode": "0x60c060405234801561001057600080fd5b506040516107fb3803806107fb83398181016040528101906100329190610110565b818073ffffffffffffffffffffffffffffffffffffffff1660808173ffffffffffffffffffffffffffffffffffffffff1681525050508060a081815250505050610150565b600080fd5b600073ffffffffffffffffffffffffffffffffffffffff82169050919050565b60006100a78261007c565b9050919050565b6100b78161009c565b81146100c257600080fd5b50565b6000815190506100d4816100ae565b92915050565b6000819050919050565b6100ed816100da565b81146100f857600080fd5b50565b60008151905061010a816100e4565b92915050565b6000806040838503121561012757610126610077565b5b6000610135858286016100c5565b9250506020610146858286016100fb565b9150509250929050565b60805160a0516106786101836000396000818161010501526101ed01526000818161012d015261018101526106786000f3fe60806040526004361061004a5760003560e01c806309bc33a71461004f5780631180fe3b1461007a5780631fe543e3146100915780632cfcc539146100ba578063e55ae4e8146100c4575b600080fd5b34801561005b57600080fd5b50610064610101565b6040516100719190610351565b60405180910390f35b34801561008657600080fd5b5061008f610129565b005b34801561009d57600080fd5b506100b860048036038101906100b39190610505565b61012b565b005b6100c26101eb565b005b3480156100d057600080fd5b506100eb60048036038101906100e69190610561565b6102ed565b6040516100f891906105cf565b60405180910390f35b60007f0000000000000000000000000000000000000000000000000000000000000000905090565b565b7f000000000000000000000000000000000000000000000000000000000000000073ffffffffffffffffffffffffffffffffffffffff163373ffffffffffffffffffffffffffffffffffffffff16146101dd57337f00000000000000000000000000000000000000000000000000000000000000006040517f1cf993f40000000000000000000000000000000000000000000000000000000081526004016101d49291906105ea565b60405180910390fd5b6101e78282610334565b5050565b7f0000000000000000000000000000000000000000000000000000000000000000341015610245576040517fe087033e00000000000000000000000000000000000000000000000000000000815260040160405180910390fd5b6000339080600181540180825580915050600190039060005260206000200160009091909190916101000a81548173ffffffffffffffffffffffffffffffffffffffff021916908373ffffffffffffffffffffffffffffffffffffffff1602179055503373ffffffffffffffffffffffffffffffffffffffff167f0805e1d667bddb8a95f0f09880cf94f403fb596ce79928d9f29b74203ba284d460405160405180910390a2565b600080828154811061030257610301610613565b5b9060005260206000200160009054906101000a900473ffffffffffffffffffffffffffffffffffffffff169050919050565b5050565b6000819050919050565b61034b81610338565b82525050565b60006020820190506103666000830184610342565b92915050565b6000604051905090565b600080fd5b600080fd5b61038981610338565b811461039457600080fd5b50565b6000813590506103a681610380565b92915050565b600080fd5b6000601f19601f8301169050919050565b7f4e487b7100000000000000000000000000000000000000000000000000000000600052604160045260246000fd5b6103fa826103b1565b810181811067ffffffffffffffff82111715610419576104186103c2565b5b80604052505050565b600061042c61036c565b905061043882826103f1565b919050565b600067ffffffffffffffff821115610458576104576103c2565b5b602082029050602081019050919050565b600080fd5b600061048161047c8461043d565b610422565b905080838252602082019050602084028301858111156104a4576104a3610469565b5b835b818110156104cd57806104b98882610397565b8452602084019350506020810190506104a6565b5050509392505050565b600082601f8301126104ec576104eb6103ac565b5b81356104fc84826020860161046e565b91505092915050565b6000806040838503121561051c5761051b610376565b5b600061052a85828601610397565b925050602083013567ffffffffffffffff81111561054b5761054a61037b565b5b610557858286016104d7565b9150509250929050565b60006020828403121561057757610576610376565b5b600061058584828501610397565b91505092915050565b600073ffffffffffffffffffffffffffffffffffffffff82169050919050565b60006105b98261058e565b9050919050565b6105c9816105ae565b82525050565b60006020820190506105e460008301846105c0565b92915050565b60006040820190506105ff60008301856105c0565b61060c60208301846105c0565b9392505050565b7f4e487b7100000000000000000000000000000000000000000000000000000000600052603260045260246000fdfea26469706673582212207c685037dd78269b7c42378514d81dc72cf65c34bee9a9cba7230c7b39abe00a64736f6c63430008110033",
  "linkReferences": {},
  "deployedLinkReferences": {}
}