{
  "_format": "hh-sol-artifact-1",
  "contractName": "Raffle",
  "sourceName": "contracts/Raffle.sol",
  "abi": [
    {
      "inputs": [
        {
          "internalType": "address",
          "name": "vrfCordinatorV2",
          "type": "address"
        },
        {
          "internalType": "uint64",
          "name": "subscriptionId",
          "type": "uint64"
        },
        {
          "internalType": "bytes32",
          "name": "gasLane",
          "type": "bytes32"
        },
        {
          "internalType": "uint256",
          "name": "interval",
          "type": "uint256"
        },
        {
          "internalType": "uint256",
          "name": "entranceFee",
          "type": "uint256"
        },
        {
          "internalType": "uint32",
          "name": "callbackGasLimit",
          "type": "uint32"
        }
      ],
      "stateMutability": "nonpayable",
      "type": "constructor"
    },
    {
      "inputs": [
        {
          "internalType": "address",
          "name": "have",
          "type": "address"
        },
        {
          "internalType": "address",
          "name": "want",
          "type": "address"
        }
      ],
      "name": "OnlyCoordinatorCanFulfill",
      "type": "error"
    },
    {
      "inputs": [],
      "name": "Raffle_NotEnoughEthEnterd",
      "type": "error"
    },
    {
      "inputs": [
        {
          "internalType": "uint256",
          "name": "currentBalance",
          "type": "uint256"
        },
        {
          "internalType": "uint256",
          "name": "numPlayers",
          "type": "uint256"
        },
        {
          "internalType": "uint256",
          "name": "raffleState",
          "type": "uint256"
        }
      ],
      "name": "Raffle_UpkeepNotNeeded",
      "type": "error"
    },
    {
      "inputs": [],
      "name": "Raffle__NotOpened",
      "type": "error"
    },
    {
      "inputs": [],
      "name": "Raffle__transferFailed",
      "type": "error"
    },
    {
      "anonymous": false,
      "inputs": [
        {
          "indexed": true,
          "internalType": "address",
          "name": "player",
          "type": "address"
        }
      ],
      "name": "RaffleEnter",
      "type": "event"
    },
    {
      "anonymous": false,
      "inputs": [
        {
          "indexed": true,
          "internalType": "uint256",
          "name": "requestId",
          "type": "uint256"
        }
      ],
      "name": "RequestedRaffleWinner",
      "type": "event"
    },
    {
      "anonymous": false,
      "inputs": [
        {
          "indexed": true,
          "internalType": "address",
          "name": "recentWinner",
          "type": "address"
        }
      ],
      "name": "WinnerPicked",
      "type": "event"
    },
    {
      "inputs": [
        {
          "internalType": "bytes",
          "name": "",
          "type": "bytes"
        }
      ],
      "name": "checkUpkeep",
      "outputs": [
        {
          "internalType": "bool",
          "name": "upkeepNeeded",
          "type": "bool"
        },
        {
          "internalType": "bytes",
          "name": "",
          "type": "bytes"
        }
      ],
      "stateMutability": "nonpayable",
      "type": "function"
    },
    {
      "inputs": [],
      "name": "enterRaffle",
      "outputs": [],
      "stateMutability": "payable",
      "type": "function"
    },
    {
      "inputs": [],
      "name": "getEntranceFee",
      "outputs": [
        {
          "internalType": "uint256",
          "name": "",
          "type": "uint256"
        }
      ],
      "stateMutability": "view",
      "type": "function"
    },
    {
      "inputs": [],
      "name": "getInterval",
      "outputs": [
        {
          "internalType": "uint256",
          "name": "",
          "type": "uint256"
        }
      ],
      "stateMutability": "view",
      "type": "function"
    },
    {
      "inputs": [],
      "name": "getLatesTimeSnap",
      "outputs": [
        {
          "internalType": "uint256",
          "name": "",
          "type": "uint256"
        }
      ],
      "stateMutability": "view",
      "type": "function"
    },
    {
      "inputs": [],
      "name": "getNumWords",
      "outputs": [
        {
          "internalType": "uint256",
          "name": "",
          "type": "uint256"
        }
      ],
      "stateMutability": "pure",
      "type": "function"
    },
    {
      "inputs": [],
      "name": "getNumberOfPlayers",
      "outputs": [
        {
          "internalType": "uint256",
          "name": "",
          "type": "uint256"
        }
      ],
      "stateMutability": "view",
      "type": "function"
    },
    {
      "inputs": [
        {
          "internalType": "uint256",
          "name": "index",
          "type": "uint256"
        }
      ],
      "name": "getPlayer",
      "outputs": [
        {
          "internalType": "address",
          "name": "",
          "type": "address"
        }
      ],
      "stateMutability": "view",
      "type": "function"
    },
    {
      "inputs": [],
      "name": "getRaffleState",
      "outputs": [
        {
          "internalType": "enum Raffle.RaffleState",
          "name": "",
          "type": "uint8"
        }
      ],
      "stateMutability": "view",
      "type": "function"
    },
    {
      "inputs": [],
      "name": "getRecentWinner",
      "outputs": [
        {
          "internalType": "address",
          "name": "",
          "type": "address"
        }
      ],
      "stateMutability": "view",
      "type": "function"
    },
    {
      "inputs": [
        {
          "internalType": "bytes",
          "name": "",
          "type": "bytes"
        }
      ],
      "name": "performUpkeep",
      "outputs": [],
      "stateMutability": "nonpayable",
      "type": "function"
    },
    {
      "inputs": [
        {
          "internalType": "uint256",
          "name": "requestId",
          "type": "uint256"
        },
        {
          "internalType": "uint256[]",
          "name": "randomWords",
          "type": "uint256[]"
        }
      ],
      "name": "rawFulfillRandomWords",
      "outputs": [],
      "stateMutability": "nonpayable",
      "type": "function"
    }
  ],
  "bytecode": "0x6101806040523480156200001257600080fd5b506040516200183338038062001833833981810160405281019062000038919062000296565b858073ffffffffffffffffffffffffffffffffffffffff1660808173ffffffffffffffffffffffffffffffffffffffff1681525050508160a081815250508573ffffffffffffffffffffffffffffffffffffffff1660c08173ffffffffffffffffffffffffffffffffffffffff16815250508360e081815250508467ffffffffffffffff166101008167ffffffffffffffff16815250508063ffffffff166101208163ffffffff16815250506000600160146101000a81548160ff021916908360018111156200010d576200010c62000332565b5b021790555082610160818152505082610140818152505050505050505062000361565b600080fd5b600073ffffffffffffffffffffffffffffffffffffffff82169050919050565b6000620001628262000135565b9050919050565b620001748162000155565b81146200018057600080fd5b50565b600081519050620001948162000169565b92915050565b600067ffffffffffffffff82169050919050565b620001b9816200019a565b8114620001c557600080fd5b50565b600081519050620001d981620001ae565b92915050565b6000819050919050565b620001f481620001df565b81146200020057600080fd5b50565b6000815190506200021481620001e9565b92915050565b6000819050919050565b6200022f816200021a565b81146200023b57600080fd5b50565b6000815190506200024f8162000224565b92915050565b600063ffffffff82169050919050565b620002708162000255565b81146200027c57600080fd5b50565b600081519050620002908162000265565b92915050565b60008060008060008060c08789031215620002b657620002b562000130565b5b6000620002c689828a0162000183565b9650506020620002d989828a01620001c8565b9550506040620002ec89828a0162000203565b9450506060620002ff89828a016200023e565b93505060806200031289828a016200023e565b92505060a06200032589828a016200027f565b9150509295509295509295565b7f4e487b7100000000000000000000000000000000000000000000000000000000600052602160045260246000fd5b60805160a05160c05160e05161010051610120516101405161016051611450620003e36000396000818161052201526107d30152600081816107b201526108790152600061067d0152600061065a01526000610639015260006105fd0152600081816102b401526103b10152600081816102f1015261034501526114506000f3fe6080604052600436106100a75760003560e01c8063473f1ddc11610064578063473f1ddc1461018957806353a2c19a146101b45780636e04ff0d146101df57806391ad27b41461021d578063e55ae4e814610248578063fd6673f514610285576100a7565b806309bc33a7146100ac578063115cbaf5146100d75780631fe543e3146101025780632cfcc5391461012b57806335a0f9ed146101355780634585e33b14610160575b600080fd5b3480156100b857600080fd5b506100c16102b0565b6040516100ce9190610bda565b60405180910390f35b3480156100e357600080fd5b506100ec6102d8565b6040516100f99190610c6c565b60405180910390f35b34801561010e57600080fd5b5061012960048036038101906101249190610e20565b6102ef565b005b6101336103af565b005b34801561014157600080fd5b5061014a61051e565b6040516101579190610bda565b60405180910390f35b34801561016c57600080fd5b5061018760048036038101906101829190610ed7565b610546565b005b34801561019557600080fd5b5061019e610736565b6040516101ab9190610f65565b60405180910390f35b3480156101c057600080fd5b506101c9610760565b6040516101d69190610bda565b60405180910390f35b3480156101eb57600080fd5b5061020660048036038101906102019190611035565b61076f565b604051610214929190611118565b60405180910390f35b34801561022957600080fd5b50610232610875565b60405161023f9190610bda565b60405180910390f35b34801561025457600080fd5b5061026f600480360381019061026a9190611148565b61089d565b60405161027c9190610f65565b60405180910390f35b34801561029157600080fd5b5061029a6108e4565b6040516102a79190610bda565b60405180910390f35b60007f0000000000000000000000000000000000000000000000000000000000000000905090565b6000600160149054906101000a900460ff16905090565b7f000000000000000000000000000000000000000000000000000000000000000073ffffffffffffffffffffffffffffffffffffffff163373ffffffffffffffffffffffffffffffffffffffff16146103a157337f00000000000000000000000000000000000000000000000000000000000000006040517f1cf993f4000000000000000000000000000000000000000000000000000000008152600401610398929190611175565b60405180910390fd5b6103ab82826108f0565b5050565b7f0000000000000000000000000000000000000000000000000000000000000000341015610409576040517fe087033e00000000000000000000000000000000000000000000000000000000815260040160405180910390fd5b6000600181111561041d5761041c610bf5565b5b600160149054906101000a900460ff16600181111561043f5761043e610bf5565b5b14610476576040517f21025eb500000000000000000000000000000000000000000000000000000000815260040160405180910390fd5b6000339080600181540180825580915050600190039060005260206000200160009091909190916101000a81548173ffffffffffffffffffffffffffffffffffffffff021916908373ffffffffffffffffffffffffffffffffffffffff1602179055503373ffffffffffffffffffffffffffffffffffffffff167f0805e1d667bddb8a95f0f09880cf94f403fb596ce79928d9f29b74203ba284d460405160405180910390a2565b60007f0000000000000000000000000000000000000000000000000000000000000000905090565b60006105606040518060200160405280600081525061076f565b509050806105cf5747600080549050600160149054906101000a900460ff16600181111561059157610590610bf5565b5b6040517fe059521b0000000000000000000000000000000000000000000000000000000081526004016105c69392919061119e565b60405180910390fd5b60018060146101000a81548160ff021916908360018111156105f4576105f3610bf5565b5b021790555060007f000000000000000000000000000000000000000000000000000000000000000073ffffffffffffffffffffffffffffffffffffffff16635d3b1d307f00000000000000000000000000000000000000000000000000000000000000007f000000000000000000000000000000000000000000000000000000000000000060037f000000000000000000000000000000000000000000000000000000000000000060016040518663ffffffff1660e01b81526004016106be95949392919061124d565b6020604051808303816000875af11580156106dd573d6000803e3d6000fd5b505050506040513d601f19601f8201168201806040525081019061070191906112b5565b9050807fcd6e45c8998311cab7e9d4385596cac867e20a0587194b954fa3a731c93ce78b60405160405180910390a250505050565b6000600160009054906101000a900473ffffffffffffffffffffffffffffffffffffffff16905090565b6000600163ffffffff16905090565b600060606000600160149054906101000a900460ff16600181111561079757610796610bf5565b5b600060018111156107ab576107aa610bf5565b5b14905060007f00000000000000000000000000000000000000000000000000000000000000007f0000000000000000000000000000000000000000000000000000000000000000426107fd9190611311565b1190506000806000805490501190506000804711905083801561081d5750825b80156108265750815b801561082f5750805b9550856040518060400160405280600381526020017f30783000000000000000000000000000000000000000000000000000000000008152509550955050505050915091565b60007f0000000000000000000000000000000000000000000000000000000000000000905090565b60008082815481106108b2576108b1611345565b5b9060005260206000200160009054906101000a900473ffffffffffffffffffffffffffffffffffffffff169050919050565b60008080549050905090565b600080805490508260008151811061090b5761090a611345565b5b602002602001015161091d91906113a3565b9050600080828154811061093457610933611345565b5b9060005260206000200160009054906101000a900473ffffffffffffffffffffffffffffffffffffffff169050600067ffffffffffffffff81111561097c5761097b610cdd565b5b6040519080825280602002602001820160405280156109aa5781602001602082028036833780820191505090505b50600090805190602001906109c0929190610b1a565b5080600160006101000a81548173ffffffffffffffffffffffffffffffffffffffff021916908373ffffffffffffffffffffffffffffffffffffffff1602179055506000600160146101000a81548160ff02191690836001811115610a2857610a27610bf5565b5b021790555060008173ffffffffffffffffffffffffffffffffffffffff1647604051610a5390611405565b60006040518083038185875af1925050503d8060008114610a90576040519150601f19603f3d011682016040523d82523d6000602084013e610a95565b606091505b5050905080610ad0576040517f9594d81300000000000000000000000000000000000000000000000000000000815260040160405180910390fd5b8173ffffffffffffffffffffffffffffffffffffffff167f5b690ec4a06fe979403046eaeea5b3ce38524683c3001f662c8b5a829632f7df60405160405180910390a25050505050565b828054828255906000526020600020908101928215610b93579160200282015b82811115610b925782518260006101000a81548173ffffffffffffffffffffffffffffffffffffffff021916908373ffffffffffffffffffffffffffffffffffffffff16021790555091602001919060010190610b3a565b5b509050610ba09190610ba4565b5090565b5b80821115610bbd576000816000905550600101610ba5565b5090565b6000819050919050565b610bd481610bc1565b82525050565b6000602082019050610bef6000830184610bcb565b92915050565b7f4e487b7100000000000000000000000000000000000000000000000000000000600052602160045260246000fd5b60028110610c3557610c34610bf5565b5b50565b6000819050610c4682610c24565b919050565b6000610c5682610c38565b9050919050565b610c6681610c4b565b82525050565b6000602082019050610c816000830184610c5d565b92915050565b6000604051905090565b600080fd5b600080fd5b610ca481610bc1565b8114610caf57600080fd5b50565b600081359050610cc181610c9b565b92915050565b600080fd5b6000601f19601f8301169050919050565b7f4e487b7100000000000000000000000000000000000000000000000000000000600052604160045260246000fd5b610d1582610ccc565b810181811067ffffffffffffffff82111715610d3457610d33610cdd565b5b80604052505050565b6000610d47610c87565b9050610d538282610d0c565b919050565b600067ffffffffffffffff821115610d7357610d72610cdd565b5b602082029050602081019050919050565b600080fd5b6000610d9c610d9784610d58565b610d3d565b90508083825260208201905060208402830185811115610dbf57610dbe610d84565b5b835b81811015610de85780610dd48882610cb2565b845260208401935050602081019050610dc1565b5050509392505050565b600082601f830112610e0757610e06610cc7565b5b8135610e17848260208601610d89565b91505092915050565b60008060408385031215610e3757610e36610c91565b5b6000610e4585828601610cb2565b925050602083013567ffffffffffffffff811115610e6657610e65610c96565b5b610e7285828601610df2565b9150509250929050565b600080fd5b60008083601f840112610e9757610e96610cc7565b5b8235905067ffffffffffffffff811115610eb457610eb3610e7c565b5b602083019150836001820283011115610ed057610ecf610d84565b5b9250929050565b60008060208385031215610eee57610eed610c91565b5b600083013567ffffffffffffffff811115610f0c57610f0b610c96565b5b610f1885828601610e81565b92509250509250929050565b600073ffffffffffffffffffffffffffffffffffffffff82169050919050565b6000610f4f82610f24565b9050919050565b610f5f81610f44565b82525050565b6000602082019050610f7a6000830184610f56565b92915050565b600080fd5b600067ffffffffffffffff821115610fa057610f9f610cdd565b5b610fa982610ccc565b9050602081019050919050565b82818337600083830152505050565b6000610fd8610fd384610f85565b610d3d565b905082815260208101848484011115610ff457610ff3610f80565b5b610fff848285610fb6565b509392505050565b600082601f83011261101c5761101b610cc7565b5b813561102c848260208601610fc5565b91505092915050565b60006020828403121561104b5761104a610c91565b5b600082013567ffffffffffffffff81111561106957611068610c96565b5b61107584828501611007565b91505092915050565b60008115159050919050565b6110938161107e565b82525050565b600081519050919050565b600082825260208201905092915050565b60005b838110156110d35780820151818401526020810190506110b8565b60008484015250505050565b60006110ea82611099565b6110f481856110a4565b93506111048185602086016110b5565b61110d81610ccc565b840191505092915050565b600060408201905061112d600083018561108a565b818103602083015261113f81846110df565b90509392505050565b60006020828403121561115e5761115d610c91565b5b600061116c84828501610cb2565b91505092915050565b600060408201905061118a6000830185610f56565b6111976020830184610f56565b9392505050565b60006060820190506111b36000830186610bcb565b6111c06020830185610bcb565b6111cd6040830184610bcb565b949350505050565b6000819050919050565b6111e8816111d5565b82525050565b600067ffffffffffffffff82169050919050565b61120b816111ee565b82525050565b600061ffff82169050919050565b61122881611211565b82525050565b600063ffffffff82169050919050565b6112478161122e565b82525050565b600060a08201905061126260008301886111df565b61126f6020830187611202565b61127c604083018661121f565b611289606083018561123e565b611296608083018461123e565b9695505050505050565b6000815190506112af81610c9b565b92915050565b6000602082840312156112cb576112ca610c91565b5b60006112d9848285016112a0565b91505092915050565b7f4e487b7100000000000000000000000000000000000000000000000000000000600052601160045260246000fd5b600061131c82610bc1565b915061132783610bc1565b925082820390508181111561133f5761133e6112e2565b5b92915050565b7f4e487b7100000000000000000000000000000000000000000000000000000000600052603260045260246000fd5b7f4e487b7100000000000000000000000000000000000000000000000000000000600052601260045260246000fd5b60006113ae82610bc1565b91506113b983610bc1565b9250826113c9576113c8611374565b5b828206905092915050565b600081905092915050565b50565b60006113ef6000836113d4565b91506113fa826113df565b600082019050919050565b6000611410826113e2565b915081905091905056fea26469706673582212203f45476eb20b2a96e9f09468af1d3d4c15fad7387d5601fea1035949326c66e064736f6c63430008110033",
  "linkReferences": {},
  "deployedLinkReferences": {}
}